{
  "contractName": "Web3GamesSpace",
  "abi": [
    {
      "anonymous": false,
      "inputs": [
        {
          "indexed": false,
          "internalType": "uint256",
          "name": "id",
          "type": "uint256"
        },
        {
          "indexed": false,
          "internalType": "string",
          "name": "cid",
          "type": "string"
        },
        {
          "indexed": false,
          "internalType": "string",
          "name": "thumbnail",
          "type": "string"
        },
        {
          "indexed": false,
          "internalType": "string",
          "name": "preview",
          "type": "string"
        },
        {
          "indexed": false,
          "internalType": "string",
          "name": "title",
          "type": "string"
        },
        {
          "indexed": false,
          "internalType": "string",
          "name": "description",
          "type": "string"
        },
        {
          "indexed": false,
          "internalType": "address",
          "name": "creator",
          "type": "address"
        },
        {
          "indexed": false,
          "internalType": "uint256[]",
          "name": "tags",
          "type": "uint256[]"
        },
        {
          "indexed": false,
          "internalType": "uint256",
          "name": "timestamp",
          "type": "uint256"
        }
      ],
      "name": "NewGameUploaded",
      "type": "event"
    },
    {
      "constant": true,
      "inputs": [],
      "name": "totalGames",
      "outputs": [
        {
          "internalType": "uint256",
          "name": "",
          "type": "uint256"
        }
      ],
      "payable": false,
      "stateMutability": "view",
      "type": "function"
    },
    {
      "constant": true,
      "inputs": [
        {
          "internalType": "uint256",
          "name": "id",
          "type": "uint256"
        }
      ],
      "name": "getFromId",
      "outputs": [
        {
          "components": [
            {
              "internalType": "uint256",
              "name": "id",
              "type": "uint256"
            },
            {
              "internalType": "string",
              "name": "cid",
              "type": "string"
            },
            {
              "internalType": "string",
              "name": "thumbnail",
              "type": "string"
            },
            {
              "internalType": "string",
              "name": "preview",
              "type": "string"
            },
            {
              "internalType": "string",
              "name": "title",
              "type": "string"
            },
            {
              "internalType": "string",
              "name": "description",
              "type": "string"
            },
            {
              "internalType": "address",
              "name": "creator",
              "type": "address"
            },
            {
              "internalType": "uint256[]",
              "name": "tags",
              "type": "uint256[]"
            },
            {
              "internalType": "uint256",
              "name": "timestamp",
              "type": "uint256"
            }
          ],
          "internalType": "struct Web3GamesSpace.Game",
          "name": "",
          "type": "tuple"
        }
      ],
      "payable": false,
      "stateMutability": "view",
      "type": "function"
    },
    {
      "constant": true,
      "inputs": [
        {
          "internalType": "string",
          "name": "cid",
          "type": "string"
        }
      ],
      "name": "getFromCid",
      "outputs": [
        {
          "components": [
            {
              "internalType": "uint256",
              "name": "id",
              "type": "uint256"
            },
            {
              "internalType": "string",
              "name": "cid",
              "type": "string"
            },
            {
              "internalType": "string",
              "name": "thumbnail",
              "type": "string"
            },
            {
              "internalType": "string",
              "name": "preview",
              "type": "string"
            },
            {
              "internalType": "string",
              "name": "title",
              "type": "string"
            },
            {
              "internalType": "string",
              "name": "description",
              "type": "string"
            },
            {
              "internalType": "address",
              "name": "creator",
              "type": "address"
            },
            {
              "internalType": "uint256[]",
              "name": "tags",
              "type": "uint256[]"
            },
            {
              "internalType": "uint256",
              "name": "timestamp",
              "type": "uint256"
            }
          ],
          "internalType": "struct Web3GamesSpace.Game",
          "name": "",
          "type": "tuple"
        }
      ],
      "payable": false,
      "stateMutability": "view",
      "type": "function"
    },
    {
      "constant": true,
      "inputs": [],
      "name": "getAll",
      "outputs": [
        {
          "components": [
            {
              "internalType": "uint256",
              "name": "id",
              "type": "uint256"
            },
            {
              "internalType": "string",
              "name": "cid",
              "type": "string"
            },
            {
              "internalType": "string",
              "name": "thumbnail",
              "type": "string"
            },
            {
              "internalType": "string",
              "name": "preview",
              "type": "string"
            },
            {
              "internalType": "string",
              "name": "title",
              "type": "string"
            },
            {
              "internalType": "string",
              "name": "description",
              "type": "string"
            },
            {
              "internalType": "address",
              "name": "creator",
              "type": "address"
            },
            {
              "internalType": "uint256[]",
              "name": "tags",
              "type": "uint256[]"
            },
            {
              "internalType": "uint256",
              "name": "timestamp",
              "type": "uint256"
            }
          ],
          "internalType": "struct Web3GamesSpace.Game[]",
          "name": "",
          "type": "tuple[]"
        }
      ],
      "payable": false,
      "stateMutability": "view",
      "type": "function"
    },
    {
      "constant": false,
      "inputs": [
        {
          "internalType": "uint256",
          "name": "id",
          "type": "uint256"
        }
      ],
      "name": "del",
      "outputs": [],
      "payable": false,
      "stateMutability": "nonpayable",
      "type": "function"
    },
    {
      "constant": false,
      "inputs": [
        {
          "internalType": "string",
          "name": "cid",
          "type": "string"
        },
        {
          "internalType": "string",
          "name": "thumbnail",
          "type": "string"
        },
        {
          "internalType": "string",
          "name": "preview",
          "type": "string"
        },
        {
          "internalType": "string",
          "name": "title",
          "type": "string"
        },
        {
          "internalType": "string",
          "name": "description",
          "type": "string"
        },
        {
          "internalType": "uint256[]",
          "name": "tags",
          "type": "uint256[]"
        },
        {
          "internalType": "uint256",
          "name": "timestamp",
          "type": "uint256"
        }
      ],
      "name": "set",
      "outputs": [],
      "payable": false,
      "stateMutability": "nonpayable",
      "type": "function"
    }
  ],
  "bytecode": "0x60806040526000805534801561001457600080fd5b506116c1806100246000396000f3fe608060405234801561001057600080fd5b50600436106100725760003560e01c806357771a231161005057806357771a23146100bf578063de8f1299146100d2578063fa3720f6146100f257610072565b80632c4e591b1461007757806338de1e201461009557806353ed5143146100aa575b600080fd5b61007f610105565b60405161008c91906114bc565b60405180910390f35b6100a86100a33660046110a0565b61010b565b005b6100b26103ff565b60405161008c919061149a565b6100a86100cd3660046111cb565b6107e7565b6100e56100e0366004611063565b6109b8565b60405161008c91906114ab565b6100e56101003660046111cb565b610d5d565b60005481565b6040518061012001604052806000548152602001888152602001878152602001868152602001858152602001848152602001336001600160a01b0316815260200183815260200182815250600188604051610166919061148e565b908152602001604051809103902060008201518160000155602082015181600101908051906020019061019a929190610dfc565b50604082015180516101b6916002840191602090910190610dfc565b50606082015180516101d2916003840191602090910190610dfc565b50608082015180516101ee916004840191602090910190610dfc565b5060a0820151805161020a916005840191602090910190610dfc565b5060c082015160068201805473ffffffffffffffffffffffffffffffffffffffff19166001600160a01b0390921691909117905560e08201518051610259916007840191602090910190610e7a565b506101009182015160089091015560408051610120810182526000805480835260208084018d81528486018d9052606085018c9052608085018b905260a085018a90523360c086015260e085018990529584018790529082526002815292902081518155925180519193926102d692600185019290910190610dfc565b50604082015180516102f2916002840191602090910190610dfc565b506060820151805161030e916003840191602090910190610dfc565b506080820151805161032a916004840191602090910190610dfc565b5060a08201518051610346916005840191602090910190610dfc565b5060c082015160068201805473ffffffffffffffffffffffffffffffffffffffff19166001600160a01b0390921691909117905560e08201518051610395916007840191602090910190610e7a565b5061010082015181600801559050507f02adb2fd1cf1dfff95dd3a86a2cb91a2db1ebdaa004918d3fb444cfb0bf41fb760005488888888883389896040516103e5999897969594939291906114ca565b60405180910390a150506000805460010190555050505050565b60608060005460405190808252806020026020018201604052801561043e57816020015b61042b610eb4565b8152602001906001900390816104235790505b50905060005b6000548110156107e057600081815260026020818152604092839020835161012081018552815481526001808301805487519281161561010002600019011695909504601f81018590048502820185019096528581529194909385938581019392908301828280156104f75780601f106104cc576101008083540402835291602001916104f7565b820191906000526020600020905b8154815290600101906020018083116104da57829003601f168201915b5050509183525050600282810180546040805160206001841615610100026000190190931694909404601f810183900483028501830190915280845293810193908301828280156105895780601f1061055e57610100808354040283529160200191610589565b820191906000526020600020905b81548152906001019060200180831161056c57829003601f168201915b505050918352505060038201805460408051602060026001851615610100026000190190941693909304601f810184900484028201840190925281815293820193929183018282801561061d5780601f106105f25761010080835404028352916020019161061d565b820191906000526020600020905b81548152906001019060200180831161060057829003601f168201915b505050918352505060048201805460408051602060026001851615610100026000190190941693909304601f81018490048402820184019092528181529382019392918301828280156106b15780601f10610686576101008083540402835291602001916106b1565b820191906000526020600020905b81548152906001019060200180831161069457829003601f168201915b505050918352505060058201805460408051602060026001851615610100026000190190941693909304601f81018490048402820184019092528181529382019392918301828280156107455780601f1061071a57610100808354040283529160200191610745565b820191906000526020600020905b81548152906001019060200180831161072857829003601f168201915b505050918352505060068201546001600160a01b031660208083019190915260078301805460408051828502810185018252828152940193928301828280156107ad57602002820191906000526020600020905b815481526020019060010190808311610799575b505050505081526020016008820154815250508383815181106107cc57fe5b602090810291909101015250600101610444565b5090505b90565b6000818152600260208181526040928390206001908101805485519281161561010002600019011693909304601f810183900483028201830190945283815260609390929183018282801561087d5780601f106108525761010080835404028352916020019161087d565b820191906000526020600020905b81548152906001019060200180831161086057829003601f168201915b505050600085815260026020526040812081815593945091506108a590506001830182610f09565b6108b3600283016000610f09565b6108c1600383016000610f09565b6108cf600483016000610f09565b6108dd600583016000610f09565b60068201805473ffffffffffffffffffffffffffffffffffffffff1916905561090a600783016000610f50565b60088201600090555050600181604051610924919061148e565b90815260405190819003602001902060008082556109456001830182610f09565b610953600283016000610f09565b610961600383016000610f09565b61096f600483016000610f09565b61097d600583016000610f09565b60068201805473ffffffffffffffffffffffffffffffffffffffff191690556109aa600783016000610f50565b600882016000905550505050565b6109c0610eb4565b6001826040516109d0919061148e565b90815260200160405180910390206040518061012001604052908160008201548152602001600182018054600181600116156101000203166002900480601f016020809104026020016040519081016040528092919081815260200182805460018160011615610100020316600290048015610a8d5780601f10610a6257610100808354040283529160200191610a8d565b820191906000526020600020905b815481529060010190602001808311610a7057829003601f168201915b5050509183525050600282810180546040805160206001841615610100026000190190931694909404601f81018390048302850183019091528084529381019390830182828015610b1f5780601f10610af457610100808354040283529160200191610b1f565b820191906000526020600020905b815481529060010190602001808311610b0257829003601f168201915b505050918352505060038201805460408051602060026001851615610100026000190190941693909304601f8101849004840282018401909252818152938201939291830182828015610bb35780601f10610b8857610100808354040283529160200191610bb3565b820191906000526020600020905b815481529060010190602001808311610b9657829003601f168201915b505050918352505060048201805460408051602060026001851615610100026000190190941693909304601f8101849004840282018401909252818152938201939291830182828015610c475780601f10610c1c57610100808354040283529160200191610c47565b820191906000526020600020905b815481529060010190602001808311610c2a57829003601f168201915b505050918352505060058201805460408051602060026001851615610100026000190190941693909304601f8101849004840282018401909252818152938201939291830182828015610cdb5780601f10610cb057610100808354040283529160200191610cdb565b820191906000526020600020905b815481529060010190602001808311610cbe57829003601f168201915b505050918352505060068201546001600160a01b03166020808301919091526007830180546040805182850281018501825282815294019392830182828015610d4357602002820191906000526020600020905b815481526020019060010190808311610d2f575b505050505081526020016008820154815250509050919050565b610d65610eb4565b600260008381526020019081526020016000206040518061012001604052908160008201548152602001600182018054600181600116156101000203166002900480601f016020809104026020016040519081016040528092919081815260200182805460018160011615610100020316600290048015610a8d5780601f10610a6257610100808354040283529160200191610a8d565b828054600181600116156101000203166002900490600052602060002090601f016020900481019282601f10610e3d57805160ff1916838001178555610e6a565b82800160010185558215610e6a579182015b82811115610e6a578251825591602001919060010190610e4f565b50610e76929150610f6a565b5090565b828054828255906000526020600020908101928215610e6a5791602002820182811115610e6a578251825591602001919060010190610e4f565b60405180610120016040528060008152602001606081526020016060815260200160608152602001606081526020016060815260200160006001600160a01b0316815260200160608152602001600081525090565b50805460018160011615610100020316600290046000825580601f10610f2f5750610f4d565b601f016020900490600052602060002090810190610f4d9190610f6a565b50565b5080546000825590600052602060002090810190610f4d91905b6107e491905b80821115610e765760008155600101610f70565b600082601f830112610f9557600080fd5b8135610fa8610fa3826115a1565b61157a565b91508181835260208401935060208101905083856020840282011115610fcd57600080fd5b60005b83811015610ff95781610fe38882611052565b8452506020928301929190910190600101610fd0565b5050505092915050565b600082601f83011261101457600080fd5b8135611022610fa3826115c2565b9150808252602083016020830185838301111561103e57600080fd5b611049838284611624565b50505092915050565b803561105d8161166a565b92915050565b60006020828403121561107557600080fd5b813567ffffffffffffffff81111561108c57600080fd5b61109884828501611003565b949350505050565b600080600080600080600060e0888a0312156110bb57600080fd5b873567ffffffffffffffff8111156110d257600080fd5b6110de8a828b01611003565b975050602088013567ffffffffffffffff8111156110fb57600080fd5b6111078a828b01611003565b965050604088013567ffffffffffffffff81111561112457600080fd5b6111308a828b01611003565b955050606088013567ffffffffffffffff81111561114d57600080fd5b6111598a828b01611003565b945050608088013567ffffffffffffffff81111561117657600080fd5b6111828a828b01611003565b93505060a088013567ffffffffffffffff81111561119f57600080fd5b6111ab8a828b01610f84565b92505060c06111bc8a828b01611052565b91505092959891949750929550565b6000602082840312156111dd57600080fd5b60006110988484611052565b60006111f583836113a4565b9392505050565b60006112088383611485565b505060200190565b61121981611613565b82525050565b61121981611602565b6000611233826115f0565b61123d81856115f4565b93508360208202850161124f856115ea565b8060005b85811015611289578484038952815161126c85826111e9565b9450611277836115ea565b60209a909a0199925050600101611253565b5091979650505050505050565b60006112a1826115f0565b6112ab81856115f4565b93506112b6836115ea565b8060005b838110156112e45781516112ce88826111fc565b97506112d9836115ea565b9250506001016112ba565b509495945050505050565b60006112fa826115f0565b61130481856115f4565b935061130f836115ea565b8060005b838110156112e457815161132788826111fc565b9750611332836115ea565b925050600101611313565b6000611348826115f0565b61135281856115f4565b9350611362818560208601611630565b61136b81611660565b9093019392505050565b6000611380826115f0565b61138a81856115fd565b935061139a818560208601611630565b9290920192915050565b80516000906101208401906113b98582611485565b50602083015184820360208601526113d1828261133d565b915050604083015184820360408601526113eb828261133d565b91505060608301518482036060860152611405828261133d565b9150506080830151848203608086015261141f828261133d565b91505060a083015184820360a0860152611439828261133d565b91505060c083015161144e60c086018261121f565b5060e083015184820360e086015261146682826112ef565b91505061010083015161147d610100860182611485565b509392505050565b611219816107e4565b60006111f58284611375565b602080825281016111f58184611228565b602080825281016111f581846113a4565b6020810161105d8284611485565b61012081016114d9828c611485565b81810360208301526114eb818b61133d565b905081810360408301526114ff818a61133d565b90508181036060830152611513818961133d565b90508181036080830152611527818861133d565b905081810360a083015261153b818761133d565b905061154a60c0830186611210565b81810360e083015261155c8185611296565b905061156c610100830184611485565b9a9950505050505050505050565b60405181810167ffffffffffffffff8111828210171561159957600080fd5b604052919050565b600067ffffffffffffffff8211156115b857600080fd5b5060209081020190565b600067ffffffffffffffff8211156115d957600080fd5b506020601f91909101601f19160190565b60200190565b5190565b90815260200190565b919050565b60006001600160a01b03821661105d565b600061105d82600061105d82611602565b82818337506000910152565b60005b8381101561164b578181015183820152602001611633565b8381111561165a576000848401525b50505050565b601f01601f191690565b611673816107e4565b8114610f4d57600080fdfea365627a7a72315820c244d9ad101d7d632005f55301bc3f8de2c5d217225b7c13e9349f1941c4f4916c6578706572696d656e74616cf564736f6c63430005100040",
  "source": "// SPDX-License-Identifier: MIT\npragma solidity >=0.4.22 <0.9.0;\npragma experimental ABIEncoderV2;\n\ncontract Web3GamesSpace {\n    struct Game {\n        uint256 id;\n        string cid;\n        string thumbnail;\n        string preview;\n        string title;\n        string description;\n        address creator;\n        uint256[] tags;\n        uint256 timestamp;\n    }\n\n    event NewGameUploaded(\n        uint256 id,\n        string cid,\n        string thumbnail,\n        string preview,\n        string title,\n        string description,\n        address creator,\n        uint256[] tags,\n        uint256 timestamp\n    );\n\n    uint256 public totalGames = 0;\n\n    mapping(string => Game) games;\n    mapping(uint256 => Game) idToGame;\n\n    function getFromId(uint256 id) public view returns (Game memory) {\n        return idToGame[id];\n    }\n\n    function getFromCid(string memory cid) public view returns (Game memory) {\n        return games[cid];\n    }\n\n    function getAll() public view returns (Game[] memory) {\n        Game[] memory _games = new Game[](totalGames);\n        for (uint256 i = 0; i < totalGames; i++) {\n            Game storage game = idToGame[i];\n            _games[i] = game;\n        }\n        return _games;\n    }\n\n    function del(uint256 id) public {\n        string memory cid = idToGame[id].cid;\n        delete idToGame[id];\n        delete games[cid];\n    }\n\n    function set(\n        string memory cid,\n        string memory thumbnail,\n        string memory preview,\n        string memory title,\n        string memory description,\n        uint256[] memory tags,\n        uint256 timestamp\n    ) public {\n        games[cid] = Game(\n            totalGames,\n            cid,\n            thumbnail,\n            preview,\n            title,\n            description,\n            msg.sender,\n            tags,\n            timestamp\n        );\n        idToGame[totalGames] = Game(\n            totalGames,\n            cid,\n            thumbnail,\n            preview,\n            title,\n            description,\n            msg.sender,\n            tags,\n            timestamp\n        );\n        emit NewGameUploaded(\n            totalGames,\n            cid,\n            thumbnail,\n            preview,\n            title,\n            description,\n            msg.sender,\n            tags,\n            timestamp\n        );\n        totalGames++;\n    }\n}\n",
  "sourcePath": "/Users/maadhav/Documents/web3Projects/dGames/contracts/Web3GamesSpace.sol",
  "compiler": {
    "name": "solc",
    "version": "0.5.16+commit.9c3226ce.Emscripten.clang"
  },
  "schemaVersion": "3.4.8",
  "updatedAt": "2022-07-24T11:14:03.614Z",
  "devdoc": {
    "methods": {}
  },
  "userdoc": {
    "methods": {}
  }
}